:020000040800F2
:10000000F8040020050100089F14000829130008C7
:100010009D14000871010008C51A000800000000C6
:1000200000000000000000000000000009150008AA
:10003000AB01000800000000A114000855170008DB
:100040001F0100081F0100081F0100081F01000810
:100050001F0100081F0100081F0100081F01000800
:100060001F0100081F0100081F0100081F010008F0
:100070001F0100081F0100081F0100081F010008E0
:100080001F0100081F0100081F0100081F010008D0
:100090001F0100081F0100081F0100081F010008C0
:1000A0001F0100081F0100081F0100081F010008B0
:1000B000B91700081F0100081F0100081F010008F0
:1000C0001F0100081F0100081F0100081F01000890
:1000D0001F0100081F0100081F010008B91A0008CD
:1000E0001F0100081F0100081F010008DFF810D0E1
:1000F00000F02CF800480047051B0008AFF3008013
:10010000F80400200648804706480047FEE7FEE75F
:10011000FEE7FEE7FEE7FEE7FEE7FEE7FEE7FEE7B7
:10012000B5170008ED000008D2B201E000F8012B7D
:10013000491EFBD270470022F6E710B513460A4667
:1001400004461946FFF7F0FF204610BD064C074D48
:1001500006E0E06840F0010394E807009847103497
:10016000AC42F6D3FFF7C6FF741B0008941B0008CF
:10017000FEE7F0B505464FF6FF70002241F221047C
:1001800006460FE0AB5C80EA03200023070403D59A
:1001900084EA400080B201E006EA40005B1C082BC4
:1001A000F4D3521C8A42EDD3F0BD704772B6FEE71D
:1001B00010B590F821100022022905D00421816396
:1001C00080F82020012010BD01680B6823F00E0389
:1001D0000B6001680B6823F001030B6090F840305E
:1001E000C46B012101FA03F3636080F8211080F8E9
:1001F0002020104610BD000010B590F821100024FA
:10020000022903D00421816301243DE001680A68CA
:1002100022F00E020A6001680A6822F001020A60F8
:100220001A4A0168914201D1012121E0174A143292
:10023000914201D110211BE0144A2832914201D190
:10024000891515E0114A3C32914201D189140FE021
:100250000E4A5032914202D14FF4803108E00B4AED
:100260006432914202D14FF4801101E04FF080716D
:10027000064A083A5160012180F82110002180F8D7
:100280002010416B01B18847204610BD0800024094
:100290002DE9F84FDFF8B8910024A9F1040B2346AB
:1002A0000F2709F1040AABF1040EC9E00125A540AE
:1002B0002A40AA427DD1674ED1F804C0ACEB0608B3
:1002C000B44532D014DCBCF1030F3AD009DCBCF1E8
:1002D000000F2AD0BCF1010F1CD0BCF1020F31D1AC
:1002E0001DE0BCF1110F17D0BCF1120F2AD119E09B
:1002F000B8F5881F19D006DCB8F5803F15D0B8F5E1
:10030000801F1FD111E0B8F5001F0ED0B8F5041FF3
:1003100018D10AE0CB6815E0CB681B1D12E0CB6852
:1003200008330FE0CB680C330CE08B682BB1012B4A
:100330004FF0080303D0456104E0042302E00561A7
:1003400000E00023FF2A01D8064601E000F1040680
:100350004FEA840501D9A5F12005D6F8008007FAF7
:1003600005FC28EA0C0803FA05F548EA0508C6F872
:1003700000804D68ED0062D5374DAE6946F001064C
:10038000AE61AD6924F0030605F001050095334D1B
:1003900006EB050CDCF80850A607360F07FA06F83E
:1003A00025EA0805DFF8B880404503D14FF0000882
:1003B00017E044E0DFF8AC80404502D14FF001087F
:1003C0000FE0DFF8A480404502D14FF0020808E0BA
:1003D000DFF89880404502D14FF0030801E04FF06C
:1003E000040808FA06F848EA0508CCF808804D68C1
:1003F000D9F80060ED024D4601D5164300E0964362
:100400002E604D68DAF80060AD02554601D51643FE
:1004100000E096432E604D68DBF80060AD035D465A
:1004200001D5164300E096432E604D68DEF800606B
:10043000ED03754601D5164300E096432E60641C1B
:100440000D682A46E5407FF431AFBDE8F88F000023
:10045000080401400000111000100240000001409B
:1004600000080140000C0140001001400014014050
:100470008068084000D0012070470AB101617047D0
:100480000904FBE701488068704700000000002075
:1004900002488168027811448160704700000020A2
:1004A000074810B5016841F010010160032000F019
:1004B00079F8002000F006F800F024F8002010BDC4
:1004C0000020024070B50D4D04464FF47A71287833
:1004D000B1FBF0F00A490968B1FBF0F000F0E0FA76
:1004E00048B9102C07D200222146501E00F03AF8DD
:1004F00000206C6070BD012070BD00000000002075
:100500000C0000200E4808B5816941F001018161AD
:10051000816901F001010091C16941F08051C1611F
:10052000C06900F080500090052000F03BF80548BD
:10053000416821F0E06141F00071416008BD0000B8
:100540000010024000000140002809DB00F01F02FB
:10055000012191404009800000F1E020C0F8001125
:1005600070470000F0B40E4B1B680C46C3F3022327
:10057000C3F10705042D00D90425191D072901D24F
:10058000002300E0DB1E012606FA05F1491E21408A
:1005900099409E40761E16403143F0BC01F093BA5C
:1005A0000CED00E0064900F0070208684FF6FF0373
:1005B000184040EA0220034A1043086070470000D8
:1005C0000CED00E00000FA052DE9F0470F460500AC
:1005D00061D0434E306800F00700B84209D230685D
:1005E00020F0070038433060306800F00700B84260
:1005F00051D128683B4C810712D5400703D560686C
:1006000040F4E06060602878000703D5606840F43B
:10061000605060606068A96820F0F0000843606086
:100620002878C00728D06868012810D021680228DF
:1006300010D0890700292EDA616821F003010143F7
:100640006160FFF71FFF804641F288390DE02168A5
:100650008903EFE78901EDE7FFF714FFA0EB08013D
:10066000494502D90320BDE8F0876068696800F059
:100670000C00B0EB810FEFD1306800F00700B842FA
:100680000BD9306820F0070038433060306800F044
:100690000700B84201D00120E5E72878400705D5DA
:1006A0006068E96820F4E06008436060287800072B
:1006B00006D56068296920F4605040EAC100606096
:1006C00000F038F86168084AC1F30311515CC84072
:1006D0000649086006480068FFF7F4FE0020C2E7FC
:1006E00000200240001002405A1B00080C000020AD
:1006F000040000200448054900684968044AC1F321
:100700000221515CC84070470C00002000100240DC
:100710006A1B00080448054900684968044AC1F397
:10072000C221515CC84070470C00002000100240FC
:100730006A1B00080E4A51680E4801F00C03042B96
:1007400011D0082B0FD10C48C1F38343C903C05CFF
:100750000AD55168084AC1F34041921E515C054ACE
:100760005043B0FBF1F07047044948437047000024
:100770000010024000127A004A1B000800093D00E8
:100780002DE9F84F040070D02078C04DC00749D043
:100790006868C0F38100012807D06868C0F3810051
:1007A000022809D16868C00306D52868800339D5B6
:1007B00060680028E7D035E06068B0F5803F0BD076
:1007C00010B1B0F5A02F11D0286820F48030286037
:1007D000286820F4802002E0286840F480302860F7
:1007E000606890B1FFF74EFE06460AE0286840F4C4
:1007F00080202860F0E700BFFFF744FE801B6428DC
:1008000073D828688003F7D50CE0FFF73BFE064657
:1008100005E000BFFFF736FE801B6428F0D828688B
:100820008003F7D420789A4E80074FF001094FF0EB
:10083000000839D5686810F00C0F07D06868C0F35D
:100840008100022809D16868C00306D4286880079F
:1008500014D52069012808D110E02069B0B1C6F88C
:100860000090FFF70FFE074605E00AE1FFF70AFEDA
:10087000C01B0228C4D828688007F7D5286861699A
:1008800020F0F80040EAC10028600DE0C6F80080C2
:10089000FFF7F8FD074604E0FFF7F4FDC01B022850
:1008A00023D828688007F7D4207800072CD579480A
:1008B000A169D9B1C0F80090FFF7E4FD074604E054
:1008C000FFF7E0FDC01B02280FD8686A8007F7D544
:1008D00071484FF4FA510068B0FBF1F0009000BF8E
:1008E0000098411E0091FAD20EE080E0C0F800802E
:1008F000FFF7C8FD074604E0FFF7C4FDC01B022850
:1009000075D8686A8007F7D42078400760D5E86911
:100910000027C00008D4E86940F08050E861E86929
:10092000012700F0805000905C480168C90513D48D
:100930000168834641F480710160FFF7A3FD8246A0
:1009400006E000BFFFF79EFDA0EB0A0064284ED82A
:10095000DBF80000C005F5D5E06801280AD008B131
:10096000052813D0286A20F001002862286A20F0A8
:10097000040002E0286A40F001002862E06841F2C9
:10098000883B98B1FFF77EFD82460BE0286A40F075
:1009900004002862EEE700BFFFF774FDA0EB0A0138
:1009A00059455AD8286A8007F6D50CE0FFF76AFD4A
:1009B000824605E0FFF766FDA0EB0A0159454CD8D9
:1009C000286A8007F6D41FB1E86920F08050E861FA
:1009D000E06988B36968C1F38101022944D0022823
:1009E000C6F8608004D0FFF74DFD044638E034E0DF
:1009F000FFF748FD074604E0FFF744FDC01B02284F
:100A00002BD828688001F7D4206AB0F5803F05D143
:100A10006868A16820F4003008436860D4E90801E0
:100A20000843696821F4741108436860C6F860904F
:100A3000FFF728FD044606E025E000BFFFF722FD92
:100A4000001B022809D828688001F7D51BE000BFE9
:100A5000FFF718FD001B022802D90320BDE8F88F1C
:100A600028688001F4D40EE00128F7D06868226A73
:100A700000F48031914204D1616A00F47010884220
:100A800001D00120EAE70020E8E700000010024062
:100A900000004242800442420C00002000700040EE
:100AA00010B5401EB0F1807F01D3012010BD4FF082
:100AB000E02460610F21601701F005F80020A061BB
:100AC00007202061002010BD7047704770B590F876
:100AD0003C20012A26D0012480F83C40022280F8E4
:100AE0003D2003685A689D6822F070060A68324308
:100AF0005A600D4B02689A4208D0B2F1804F05D07F
:100B00000A4B9A4202D00A4B9A4204D1496825F016
:100B100080031943916080F83D40002180F83C102B
:100B2000084670BD022070BD002C0140000400404A
:100B30000008004010B5040003D094F83D0010B147
:100B400007E0012010BD002084F83C00204600F0A2
:100B50001FF8022084F83D00211D206800F032FEBD
:100B6000012084F8460084F83E0084F83F0084F8B1
:100B7000400084F8410084F8420084F8430084F87F
:100B8000440084F8450084F83D00002010BD0000BA
:100B900008B50068B0F1804F12D10A48C16941F030
:100BA0000101C161C069002200F001000090012133
:100BB0001C20FFF7D7FCBDE808401C20FFF7C4BC91
:100BC00008BD00000010024090F83D10012901D03E
:100BD00001207047022180F83D100168CA6842F088
:100BE0000102CA6000680B49884208D0B0F1804F0A
:100BF00005D00949884202D00849884204D1816859
:100C000001F00701062903D0016841F001010160EC
:100C100000207047002C0140000400400008004004
:100C20000168CA6822F00102CA6001680A6A41F2DA
:100C300011131A4207D10A6A9B101A4203D10A689B
:100C400022F001020A60012180F83D100020704767
:100C500070B5044690F83C000025012817D0012605
:100C600084F83C60022084F83D002068826822F00D
:100C7000770222F47F4282600868502838D00DDC69
:100C800020284FD005DC90B3102811D14AE0022073
:100C900070BD302846D040280AD13BE060282FD0D4
:100CA00070280DD0B0F5805F03D0B0F5005F12D092
:100CB000012584F83D60002084F83C00284670BD82
:100CC000CB68D1E90121206800F0B8FD2068816877
:100CD00041F0770109E0CB68D1E90121206800F0FB
:100CE000ADFD2068816841F480418160E1E719E051
:100CF000CA684968206800F0B3FD5021206806E00A
:100D0000CA684968206800F0BCFD6021206800F0D6
:100D10009FFDCEE7CA684968206800F0A1FD402128
:100D20002068F4E7226801461046F0E770472DE995
:100D3000F04104460068C66805694FF00007A9073E
:100D400013D5B10711D5F91E016101202077206864
:100D500080698007204602D0FFF7E8FF04E000F03A
:100D60007EF8204600F07CF82777680716D57007D4
:100D700014D521686FF004000861022020772068F4
:100D8000806910F4407F204602D0FFF7CFFF04E0D7
:100D900000F065F8204600F063F82777280715D59E
:100DA000300713D521686FF0080008610420207710
:100DB0002068C0698007204602D0FFF7B7FF04E033
:100DC00000F04DF8204600F04BF82777E80616D5DE
:100DD000F00614D521686FF0100008610820207714
:100DE0002068C06910F4407F204602D0FFF79EFFC4
:100DF00004E000F034F8204600F032F82777E807E6
:100E000008D0F00706D021686FF001000861204685
:100E100000F028F8280608D5300606D521686FF0BE
:100E2000800008612046FFF74FFE680608D570066F
:100E300006D521686FF040000861204600F036F8C2
:100E4000A8060AD5B00608D521686FF02000086111
:100E50002046BDE8F041FFF738BEBDE8F08170479D
:100E60007047000010B50068B0F1804F17D10C4CEE
:100E70002078012813D16068401C6060606840F6EB
:100E8000B83188420BD300224FF480410548FFF768
:100E9000F4FA0548FFF7C4FE00202070606010BD22
:100EA000100000200010014024000020704770470F
:100EB00070470000F8B5016804460868CA684B69C5
:100EC00010F00F0F4FF0000559D003F0010602F4A7
:100ED0009077374365D0C10705D0D10503D5616C44
:100EE00041F001016164410705D5D90703D0616C68
:100EF00041F002016164810705D5D90703D0616C17
:100F000041F004016164010707D502F0200131437B
:100F100003D0616C41F008016164616C00293AD032
:100F2000800604D5900602D5204600F0EBFC206830
:100F30004069616CC0F38010090700D460B320469B
:100F400000F0B9FC20684069400621D520681430C3
:100F500050E8001F21F0400140E80012002AF5D1BE
:100F6000E06BA8B16D494163E06BFFF745F90028DC
:100F700011D0E06B416B01B0BDE8F040084783063B
:100F80000FD593060DD52046BDE8F84000F0BABC59
:100F90002046FFF78DFFF8BD2046FFF789FF656407
:100FA000F8BD266B2023012E7CD1C6067AD5D60645
:100FB00078D508684868009048694FF002064006F6
:100FC00040D5E16B086840680004000CE8D0A28DB1
:100FD0008242E5D9E085886920282DD020680C3030
:100FE00050E8001F21F4807140E80012002AF5D17A
:100FF0002068143050E8001F21F0010140E8001281
:10100000002AF5D12068143050E8001F21F040017B
:1010100040E80012002AF5D184F8423025632068A8
:101020000C3050E8001F21F0100140E80012002AA7
:10103000F5D1E06BFFF7BCF86663A08DE18D401A37
:1010400081B22AE0A08DE18D401A81B2E08D0028A6
:10105000A6D00029A4D022680C3252E8000F20F458
:10106000907042E80007002FF5D12068143050E856
:10107000002F22F0010240E80027002FF5D184F86C
:101080004230256320680C3050E8002F22F0100217
:1010900040E80023002BF5D166632046FFF707FFE9
:1010A000F8BDFFE705062BD5150629D594F84100B4
:1010B0002128F5D1A068B0F5805F01D12069B0B1D9
:1010C000206A411C2162216800784860E08C401E43
:1010D0000004000CE084E3D12068C16821F08001A5
:1010E000C1602068C16841F04001C160D8E7206A52
:1010F0000088C0F308004860206A801C2062E5E791
:101100004006CDD55006CBD5CA68204622F0400215
:10111000CA6084F8413000F0DFF8C1E7A718000882
:1011200070B5040004D094F84100002510B106E029
:10113000012070BD84F84050204600F023F82420A0
:1011400084F841002068C16821F40051C160204644
:1011500000F03AFC2068016921F4904101612068A7
:10116000416921F02A0141612068C16841F40051C0
:10117000C1606564202084F8410084F84200656302
:10118000002070BD30B585B0002400940194029415
:1011900003940068184988422CD11848C16941F469
:1011A0008021C161C16901F480210491816941F00C
:1011B000080181618069124D00F0080004904FF42D
:1011C0008060009002200190032003906946284629
:1011D000FFF75EF8E814CDE900046946284602945A
:1011E000FFF756F8012200212720FFF7BBF927203F
:1011F000FFF7AAF905B030BD0048004000100240DA
:10120000000C014090F84230202B01D002207047A2
:1012100021B11AB10023036300F032BC01207047F2
:10122000F8B51C4902688A4232D1406C1A491B4CFD
:10123000002668B1106850680090106850680090EF
:10124000106850680090106850680090E67219E0CD
:10125000E07A401CC0B2E072202800D3E6720D464E
:10126000E17A681810F8010CEF2809D1082907D392
:10127000094800F079F9E17A0748FEF75CFFE67269
:10128000E07A2918BDE8F84001220548FFF7BABF07
:10129000F8BD000000480040D400002018000020E5
:1012A0006C00002090F84130202B01D002207047C4
:1012B00079B172B101628284C2840021416421212A
:1012C00080F841100068C16841F08001C1600020D1
:1012D000704701207047000008B500680D4988423A
:1012E00016D1002202210C48FFF7C7F80020009019
:1012F0000099491C00913229FADB08490122087043
:10130000C97A0748BDE8084001440648FFF77ABF9C
:1013100008BD000000480040000C014018000020FB
:10132000D40000206C000020FEE700002DE9F04111
:1013300086B000242D48009401940294039481699E
:1013400041F010018161816901F01001049181690E
:1013500041F008018161816901F00801049181690E
:1013600041F0040181618069214F00F004004FF4D5
:10137000C0450490002229463846FFF77EF8DFF882
:101380007480002202214046FFF777F8009502267C
:1013900001250396CDE9015469463846FEF778FFEA
:1013A0000320CDE90240CDE9006569464046FEF7DD
:1013B0006FFF4FF41840CDE9000469460E480294CF
:1013C000FEF766FF38208DE8310069464046FEF79B
:1013D0005FFF4FF47070CDE9000469464046029407
:1013E000FEF756FF06B0BDE8F08100000010024095
:1013F00000100140000C01400008014010B586B00B
:1014000000241748009401940294039404944FF02C
:1014100080410594016040F27F21C0E9011440F24F
:10142000E731C0E903148461FFF784FB08B1FEF7DC
:10143000BDFE4FF48050009069460948FFF708FC54
:1014400008B1FEF7B3FE049404A905480594FFF71C
:101450003DFB002801D0FEF7A9FE06B010BD00003C
:10146000240000200C4810B50A4901604FF4E13116
:101470004160002181600C22C160C0E904128161D9
:10148000C161FFF74DFE002803D0BDE81040FEF714
:101490008DBE10BD004800406C000020FEE7FEE756
:1014A00070470000F8B50E4B0646144618780D46F6
:1014B000002813D101201870024602210948FEF7C6
:1014C000DCFF00200090401C00906428FBDB2246DB
:1014D00029463046BDE8F840FFF7E4BEF8BD0000FD
:1014E00018000020000C0140012291030148FEF782
:1014F000C4BF00000010014000224FF480410148A9
:10150000FEF7BBBF001001407047000010B501227C
:1015100091030648FEF7B1FF054800214160012113
:101520000170BDE810400348FFF74EBB00100140BA
:10153000100000202400002010B5002202210648DF
:10154000FEF79BFF064905480122C97ABDE8104015
:1015500001440448FFF756BE000C0140D4000020AF
:10156000180000206C00002070B50446082937D30D
:101570002078EE2834D16078022831D1601810F834
:10158000012CEF2A2CD130F8030CC91E45BA204695
:10159000FEF7EFFD854223D1A178E07807291FD11E
:1015A000C01E06281CD2DFE800F003070B0F13173C
:1015B000BDE8704000F016B8BDE87040FFF7A6BF68
:1015C000BDE87040FFF790BFBDE87040FFF794BFE3
:1015D000BDE8704000F0AEB8BDE8704000F0B2B8B1
:1015E00070BD0000F8B53B4D4FF400712846FEF782
:1015F0003FFF394CA91560702846FEF739FFA070EF
:1016000080212846FEF734FFE07040212846FEF78F
:101610002FFF207120212846FEF72AFF607110213C
:101620002846FEF725FFA07108212846FEF720FF77
:101630002A4DE0714FF400412846FEF719FF207251
:10164000A9142846FEF714FF6072E9142846FEF735
:101650000FFFA072617869B3A2785AB3E3784BB3F5
:1016600025793DB366792EB3A7791FB394F807C0E7
:10167000BCF1000F1ED094F808E0BEF1000F19D0A5
:10168000647ABCB1B0B1012916D0012A14D0012B63
:1016900012D0012D10D0012E0ED0012F0CD0BCF194
:1016A000010F09D0BEF1010F06D0012C04D0012892
:1016B00002D008E0002000E001208DF800008DF845
:1016C00001008DF8020003226946104600F008F878
:1016D000F8BD0000000C0140180000200008014087
:1016E00070B5124C1546EE2222700222627007225B
:1016F000A270E0702571002003E00A5C2318401CF2
:101700005A71A842F9DB691D0848FEF732FD020A4A
:1017100061194A718871EF20C87105F10802BDE8AE
:10172000704002490248FFF7BDBE0000B40000202F
:101730006C000020012251030148FEF79EBE00000C
:101740000010014000224FF400510148FEF795BE01
:1017500000100140FEF79CBE30B58FB028216846CE
:10176000FEF7E9FC14210AA8FEF7E5FC022501209A
:10177000049000951020059000244FF46010CDE9EE
:10178000084007956846FEF7FBFF08B172B6FEE712
:101790000F20CDE90A054FF48060CDE90C4002210D
:1017A0000AA80E94FEF710FF002801D072B6FEE7DB
:1017B0000FB030BD704700000148FFF7B8BA000015
:1017C00024000020F0B50268194B1A4C1A4D4FF056
:1017D0008047984205D0B84203D0A04201D0A84229
:1017E00003D122F070064A683243984205D0B842CD
:1017F00003D0A04201D0A84203D122F44074CA68A9
:1018000022434C6922F08002224302608A68C2624D
:101810000A688262984201D109690163012141612C
:101820000169C90703D0016921F001010161F0BD1F
:10183000002C0140000400400008004010B58468FE
:1018400042EA032224F47F440A432243826010BD0B
:10185000826822F070020A4342F0070181607047FB
:1018600010B5036A046A24F001040462846924F058
:10187000F00444EA021423F00A020A43846102627B
:1018800010BD10B5036A046A24F010040462846970
:1018900023F0A00324F4704444EA023243EA011125
:1018A0008261016210BD10B5406A0021C185C1840A
:1018B000FFF7FEFA10BD01680C3151E8002F22F449
:1018C000907241E80023002BF5D10168143151E8F2
:1018D000002F22F0010241E80023002BF5D1016B1B
:1018E000012909D101680C3151E8002F22F01002C2
:1018F00041E80023002BF5D1202180F8421000217F
:101900000163704708B590F84210222901D00220E7
:1019100008BD82684FF480539A4201D1016921B118
:10192000816A9A421BD04AB10AE00268816A526811
:10193000C2F308020A80816A891C08E0026972B158
:101940000268526802F07F020A70816A491C816253
:10195000C18D491E0904090CC18503D01BE0026832
:101960005268F1E70168CA6822F02002CA60016883
:10197000CA6822F48072CA6001684A6922F00102D2
:101980004A61202180F8421000214163026B012A44
:1019900003D0FFF745FC002008BD016301680C314E
:1019A00051E8002F22F0100241E80023002BF5D16E
:1019B00001680A68D20602D50A6849680091818DDB
:1019C000FFF775FAE7E7000070B5044600680169A3
:1019D000E26821F44051114301612169A068084384
:1019E000616908432168CA6841F20C639A43024363
:1019F000CA6020684169A26921F4407111434161C4
:101A00001E492068884202D1FEF784FE01E0FEF7FD
:101A100071FE00EBC00101EB0012606864218000E0
:101A2000B2FBF0F3B3FBF1F36FF018067343B2FBB4
:101A3000F0F5B2FBF0F605EB8305322303EB051559
:101A4000B5FBF1F5B6FBF1F605F0F00505EB061573
:101A5000B2FBF0F6B2FBF0F0B0FBF1F06FF0180261
:101A6000504306EB800003EB0010B0FBF1F021685F
:101A700000F00F002844886070BD0000003801406D
:101A800081628285C28500214164222180F8421052
:101A9000016921B10168CA6842F48072CA600168B4
:101AA0004A6942F001024A610068C16841F02001C0
:101AB000C1600020704700000148FFF7FBB900003B
:101AC0006C000020FEE70907090E002804DB00F186
:101AD000E02080F80014704700F00F0000F1E020D3
:101AE00080F8141D704702E008C8121F08C1002AC0
:101AF000FAD170477047002001E001C1121F002A8F
:101B0000FBD17047FEF7CCFCFFF726FEFFF70EFC7B
:101B1000FFF7A8FCFFF772FC00F004F8FFF70CFDDC
:101B2000FEE7000010B5074C00224FF4804120462C
:101B3000FEF7A3FC002261142046BDE81040FEF72A
:101B40009CBC0000001001400102020304050607CE
:101B500008090A0B0C0D0E0F101000000000000009
:101B6000000001020304060708090000000001024A
:101B700003040000941B0008000000202400000063
:101B8000E61A0008B81B000824000020D404000056
:101B9000F61A00080100000010000000000000001C
:101BA00000127A00000000000000000000010101A6
:081BB000010101010101010026
:04000005080000ED02
:00000001FF
