:020000040800F2
:100000007805002001010008071F0008DF1800081C
:10001000051F00086D0100088D2500080000000084
:100020000000000000000000000000009521000812
:10003000D504000800000000091F000897210008EF
:100040001B0100081B0100081B0100081B01000820
:100050001B0100081B0100081B0100081B01000810
:100060001B0100081B0100081B0100081B01000800
:100070001B0100081B0100081B0100081B010008F0
:100080001B0100081B0100081B0100081B010008E0
:100090001B0100081B0100081B0100081B010008D0
:1000A0001B0100081B0100081B0100081B010008C0
:1000B0001B010008F92100081B0100081B010008B2
:1000C0001B0100081B0100081B0100081B010008A0
:1000D0001B01000869250008752500088125000816
:1000E0001B0100081B0100081B010008DFF80CD0F1
:1000F00000F02AF800480047F9250008780500209C
:100100000648804706480047FEE7FEE7FEE7FEE7B1
:10011000FEE7FEE7FEE7FEE7FEE7FEE7F721000861
:10012000ED000008D2B201E000F8012B491EFBD21D
:1001300070470022F6E710B513460A4604461946F2
:10014000FFF7F0FF204610BD064C074D06E0E068C3
:1001500040F0010394E8070098471034AC42F6D30E
:10016000FFF7C8FF6026000880260008FEE70000B1
:100170002DE9F0434FF6FF7C0024814662460123BF
:1001800027E0002519F80470284600BF03FA00F69E
:10019000374207D0C0F1070603FA06F848EA050817
:1001A00008F0FF05401C80B20828EFD382EA052240
:1001B000002048F20505160403D585EA420292B2F2
:1001C00001E00CEA4202401C80B20828F3D3641C10
:1001D000A4B28C42D5D300204FEA000103FA01F407
:1001E000144205D0C1F10F0403FA04F40443A0B291
:1001F000491C89B21029F1D3BDE8F083F0B505465A
:100200004FF6FF70002241F2210406460FE0AB5C7E
:1002100080EA03200023070403D584EA400080B26B
:1002200001E006EA40005B1C082BF4D3521C8A4212
:10023000EDD3F0BD2DE9F0412A4D4FF40071284671
:1002400000F0BCFA284CA9152070284600F0B6FA38
:1002500060708021284600F0B1FAA0704021284645
:1002600000F0ACFAE0702021284600F0A7FA2071D7
:100270001021284600F0A2FA60710821284600F0FB
:100280009DFA1A4DA0714FF40041284600F096FAED
:10029000E071A914284600F091FA2072E91428466A
:1002A00000F08CFA60722178C9B16278BAB1A37893
:1002B000ABB1E5789DB126798EB167797FB194F8BD
:1002C00006C0BCF1000F0AD094F807E0BEF1000FA1
:1002D00005D0247A1CB110B10020BDE8F0810120C6
:1002E000FBE70000000C0140000000200008014076
:1002F0002DE9F0470123462509270826002288B06A
:100300004FF006094FF0120C4FF0FF3A4FF0100873
:1003100007287DD2DFE800F0D90423436587A700D2
:100320008DF800308DF801508DF804208DF80220F2
:100330008DF8057007256C468DF803208DF806C0F2
:10034000002062556D1CABB209B1012500E000250B
:10035000E5545B1C401C9DB20928F2DBA2E08DF83D
:1003600000308DF801508DF804208DF805900C2098
:100370008DF802208DF8060007256C468DF8037075
:10038000002062556D1CABB209B1012500E00025CB
:10039000E5545B1C401C9DB20628F2DB82E08DF820
:1003A00000308DF801508DF802200F208DF80300E9
:1003B0008DF804200A208DF8050014208DF8060021
:1003C00007256C46002062556D1CABB209B10125B2
:1003D00000E00025E5545B1C401C9DB20A28F2DBBE
:1003E00060E08DF800308DF801508DF802201C205F
:1003F0008DF804208DF803008DF8056007256C4604
:100400008DF80680002062556D1CABB219B100E07A
:100410005BE0012500E00025E5545B1C401C9DB21B
:100420000828F0DB3EE08DF800308DF801508DF8A3
:10043000022024208DF804208DF803008DF805603B
:1004400007256C468DF80680002062556D1CABB206
:1004500009B1012500E00025E5545B1C401C9DB25C
:100460000828F2DB1EE08DF800308DF801508DF881
:1004700002202C208DF804208DF803008DF80560F3
:1004800007256C468DF806C0002062556D1CABB286
:1004900009B1012500E00025E5545B1C401C9DB21C
:1004A0000828F2DB29462046FFF762FE60556D1CE6
:1004B000A9B2000A6054491C8AB2534669460448EE
:1004C00001F0BCF908B0BDE8F0870120FAE70000B0
:1004D0008C000020704772B6FEE710B590F821102E
:1004E0000022022905D00421816380F82020012008
:1004F00010BD01680B6823F00E030B6001680B68E8
:1005000023F001030B6090F84030C46B012101FA25
:1005100003F3636080F8211080F82020104610BD9E
:1005200010B590F821100024022903D00421816322
:1005300001243DE001680A6822F00E020A600168A9
:100540000A6822F001020A601A4A0168914201D148
:10055000012121E0174A1432914201D110211BE000
:10056000144A2832914201D1891515E0114A3C32D2
:10057000914201D189140FE00E4A5032914202D1CA
:100580004FF4803108E00B4A6432914202D14FF4BB
:10059000801101E04FF08071064A083A5160012154
:1005A00080F82110002180F82010416B01B18847AC
:1005B000204610BD0800024070B5044600F008F95E
:1005C0000546601C02D004480078044400F000F99D
:1005D000401BA042FAD370BD340000202DE9F84F33
:1005E000DFF8B8910024A9F1040B23460F2709F185
:1005F000040AABF1040EC9E00125A5402A40AA4235
:100600007DD1674ED1F804C0ACEB0608B44532D0BA
:1006100014DCBCF1030F3AD009DCBCF1000F2AD086
:10062000BCF1010F1CD0BCF1020F31D11DE0BCF1B7
:10063000110F17D0BCF1120F2AD119E0B8F5881F9D
:1006400019D006DCB8F5803F15D0B8F5801F1FD152
:1006500011E0B8F5001F0ED0B8F5041F18D10AE05C
:10066000CB6815E0CB681B1D12E0CB6808330FE0A8
:10067000CB680C330CE08B682BB1012B4FF00803D7
:1006800003D0456104E0042302E0056100E000239B
:10069000FF2A01D8064601E000F104064FEA84056E
:1006A00001D9A5F12005D6F8008007FA05FC28EA53
:1006B0000C0803FA05F548EA0508C6F800804D68FD
:1006C000ED0062D5374DAE6946F00106AE61AD6909
:1006D00024F0030605F001050095334D06EB050CEB
:1006E000DCF80850A607360F07FA06F825EA0805D1
:1006F000DFF8B880404503D14FF0000817E044E030
:10070000DFF8AC80404502D14FF001080FE0DFF880
:10071000A480404502D14FF0020808E0DFF898803D
:10072000404502D14FF0030801E04FF0040808FAF9
:1007300006F848EA0508CCF808804D68D9F800604A
:10074000ED024D4601D5164300E096432E604D68FC
:10075000DAF80060AD02554601D5164300E0964335
:100760002E604D68DBF80060AD035D4601D5164391
:1007700000E096432E604D68DEF80060ED0375469C
:1007800001D5164300E096432E60641C0D682A468E
:10079000E5407FF431AFBDE8F88F00000804014068
:1007A000000011100010024000000140000801404C
:1007B000000C014000100140001401408068084016
:1007C00000D0012070470AB1016170470904FBE7BE
:1007D00001488068704700003400002002488168AA
:1007E000027811448160704734000020074810B53A
:1007F000016841F010010160032000F079F8002049
:1008000000F006F800F024F8002010BD002002409F
:1008100070B50D4D04464FF47A712878B1FBF0F0B5
:100820000A490968B1FBF0F000F0E0FA48B9102C71
:1008300007D200222146501E00F03AF800206C60DA
:1008400070BD012070BD0000340000204000002079
:100850000E4808B5816941F001018161816901F0AB
:1008600001010091C16941F08051C161C06900F08E
:1008700080500090052000F03BF80548416821F0C9
:10088000E06141F00071416008BD000000100240CD
:1008900000000140002809DB00F01F020121914007
:1008A0004009800000F1E020C0F80011704700000E
:1008B000F0B40E4B1B680C46C3F30223C3F10705CB
:1008C000042D00D90425191D072901D2002300E0B9
:1008D000DB1E012606FA05F1491E214099409E4083
:1008E000761E16403143F0BC01F051BE0CED00E025
:1008F000064900F0070208684FF6FF03184040EA77
:100900000220034A10430860704700000CED00E02D
:100910000000FA052DE9F0470F46050061D0434E6F
:10092000306800F00700B84209D2306820F00700B4
:1009300038433060306800F00700B84251D1286871
:100940003B4C810712D5400703D5606840F4E06056
:1009500060602878000703D5606840F460506060EC
:100960006068A96820F0F000084360602878C0073C
:1009700028D06868012810D02168022810D0890783
:1009800000292EDA616821F0030101436160FFF75D
:100990001FFF804641F288390DE021688903EFE7A7
:1009A0008901EDE7FFF714FFA0EB0801494502D9E3
:1009B0000320BDE8F0876068696800F00C00B0EBC8
:1009C000810FEFD1306800F00700B8420BD93068D2
:1009D00020F0070038433060306800F00700B8426C
:1009E00001D00120E5E72878400705D56068E9686F
:1009F00020F4E060084360602878000706D560684E
:100A0000296920F4605040EAC100606000F038F8C5
:100A10006168084AC1F30311515CC8400649086087
:100A200006480068FFF7F4FE0020C2E700200240FD
:100A30000010024046260008400000203800002038
:100A40000448054900684968044AC1F30221515C21
:100A5000C8407047400000200010024056260008A1
:100A60000448054900684968044AC1F3C221515C41
:100A7000C840704740000020001002405626000881
:100A80000E4A51680E4801F00C03042B11D0082BBC
:100A90000FD10C48C1F38343C903C05C0AD5516828
:100AA000084AC1F34041921E515C054A5043B0FBD5
:100AB000F1F07047044948437047000000100240BD
:100AC00000127A003626000800093D002DE9F84F93
:100AD000040070D02078C04DC00749D06868C0F3CA
:100AE0008100012807D06868C0F38100022809D17D
:100AF0006868C00306D52868800339D56068002877
:100B0000E7D035E06068B0F5803F0BD010B1B0F5AC
:100B1000A02F11D0286820F480302860286820F4A5
:100B2000802002E0286840F480302860606890B13E
:100B3000FFF74EFE06460AE0286840F48020286051
:100B4000F0E700BFFFF744FE801B642873D82868D5
:100B50008003F7D50CE0FFF73BFE064605E000BF3B
:100B6000FFF736FE801B6428F0D828688003F7D48E
:100B700020789A4E80074FF001094FF0000839D5D0
:100B8000686810F00C0F07D06868C0F38100022875
:100B900009D16868C00306D42868800714D5206985
:100BA000012808D110E02069B0B1C6F80090FFF725
:100BB0000FFE074605E00AE1FFF70AFEC01B022808
:100BC000C4D828688007F7D52868616920F0F80044
:100BD00040EAC10028600DE0C6F80080FFF7F8FD8C
:100BE000074604E0FFF7F4FDC01B022823D828685D
:100BF0008007F7D4207800072CD57948A169D9B1AE
:100C0000C0F80090FFF7E4FD074604E0FFF7E0FDC1
:100C1000C01B02280FD8686A8007F7D571484FF4C7
:100C2000FA510068B0FBF1F0009000BF0098411E3F
:100C30000091FAD20EE080E0C0F80080FFF7C8FD16
:100C4000074604E0FFF7C4FDC01B022875D8686A98
:100C50008007F7D42078400760D5E8690027C000F6
:100C600008D4E86940F08050E861E869012700F0A5
:100C7000805000905C480168C90513D40168834620
:100C800041F480710160FFF7A3FD824606E000BFDA
:100C9000FFF79EFDA0EB0A0064284ED8DBF80000A9
:100CA000C005F5D5E06801280AD008B1052813D0A1
:100CB000286A20F001002862286A20F0040002E07F
:100CC000286A40F001002862E06841F2883B98B150
:100CD000FFF77EFD82460BE0286A40F004002862A0
:100CE000EEE700BFFFF774FDA0EB0A0159455AD8A3
:100CF000286A8007F6D50CE0FFF76AFD824605E01A
:100D0000FFF766FDA0EB0A0159454CD8286A800719
:100D1000F6D41FB1E86920F08050E861E06988B33B
:100D20006968C1F38101022944D00228C6F86080B5
:100D300004D0FFF74DFD044638E034E0FFF748FDEE
:100D4000074604E0FFF744FDC01B02282BD82868A3
:100D50008001F7D4206AB0F5803F05D16868A168AA
:100D600020F4003008436860D4E90801084369684A
:100D700021F4741108436860C6F86090FFF728FDFD
:100D8000044606E025E000BFFFF722FD001B022815
:100D900009D828688001F7D51BE000BFFFF718FDD0
:100DA000001B022802D90320BDE8F88F28688001C3
:100DB000F4D40EE00128F7D06868226A00F480318C
:100DC000914204D1616A00F47010884201D0012080
:100DD000EAE70020E8E7000000100240000042427D
:100DE00080044242400000200070004010B5401EC8
:100DF000B0F1807F01D3012010BD4FF0E02460618D
:100E00000F21601701F0C3FB0020A06107202061C3
:100E1000002010BD7047704770B590F83C20012A43
:100E200026D0012480F83C40022280F83D2003684F
:100E30005A689D6822F070060A6832435A600D4B6A
:100E400002689A4208D0B2F1804F05D00A4B9A420C
:100E500002D00A4B9A4204D1496825F08003194315
:100E6000916080F83D40002180F83C10084670BD3C
:100E7000022070BD002C014000040040000800402A
:100E800010B5040003D094F83D0010B107E0012034
:100E900010BD002084F83C00204600F01FF802201E
:100EA00084F83D00211D206801F0ACF9012084F890
:100EB000460084F83E0084F83F0084F8400084F83F
:100EC000410084F8420084F8430084F8440084F828
:100ED000450084F83D00002010BD000008B5006802
:100EE0000B49884212D10B48C16941F00201C1612E
:100EF000C069002200F00200009001211D20FFF7D0
:100F0000D7FCBDE808401D20FFF7C4BC08BD0000A9
:100F1000000400400010024090F83D10012901D06B
:100F200001207047022180F83D100168CA6842F034
:100F30000102CA6000680B49884208D0B0F1804FB6
:100F400005D00949884202D00849884204D1816805
:100F500001F00701062903D0016841F00101016099
:100F600000207047002C01400004004000080040B1
:100F70000168CA6822F00102CA6001680A6A41F287
:100F800011131A4207D10A6A9B101A4203D10A6848
:100F900022F001020A60012180F83D100020704714
:100FA00070B5044690F83C000025012817D00126B2
:100FB00084F83C60022084F83D002068826822F0BA
:100FC000770222F47F4282600868502838D00DDC16
:100FD00020284FD005DC90B3102811D14AE0022020
:100FE00070BD302846D040280AD13BE060282FD081
:100FF00070280DD0B0F5805F03D0B0F5005F12D03F
:10100000012584F83D60002084F83C00284670BD2E
:10101000CB68D1E90121206801F030F920688168AE
:1010200041F0770109E0CB68D1E90121206801F0A6
:1010300025F92068816841F480418160E1E719E089
:10104000CA684968206801F02BF95021206806E041
:10105000CA684968206801F034F96021206801F00D
:1010600017F9CEE7CA684968206801F019F94021EC
:101070002068F4E7226801461046F0E770472DE942
:10108000F04104460068C66805694FF00007A907EB
:1010900013D5B10711D5F91E016101202077206811
:1010A00080698007204602D0FFF7E8FF04E000F0E7
:1010B0007EF8204600F07CF82777680716D5700781
:1010C00014D521686FF004000861022020772068A1
:1010D000806910F4407F204602D0FFF7CFFF04E084
:1010E00000F065F8204600F063F82777280715D54B
:1010F000300713D521686FF00800086104202077BD
:101100002068C0698007204602D0FFF7B7FF04E0DF
:1011100000F04DF8204600F04BF82777E80616D58A
:10112000F00614D521686FF01000086108202077C0
:101130002068C06910F4407F204602D0FFF79EFF70
:1011400004E000F034F8204600F032F82777E80792
:1011500008D0F00706D021686FF001000861204632
:1011600000F028F8280608D5300606D521686FF06B
:10117000800008612046FFF74DFE680608D570061E
:1011800006D521686FF040000861204600F034F871
:10119000A8060AD5B00608D521686FF020000861BE
:1011A0002046BDE8F041FFF736BEBDE8F08170474C
:1011B0007047000010B500680C49884214D10C4CEF
:1011C0002078012810D16068401C6060606840F69B
:1011D000B831884208D3002000F0D0FF0548FFF75F
:1011E000C7FE00202070606010BD000000040040B9
:1011F0000C0000204400002070477047704700003A
:10120000F8B5016804460868CA684B6910F00F0F0A
:101210004FF0000559D003F0010602F490773743F0
:1012200065D0C10705D0D10503D5616C41F001013E
:101230006164410705D5D90703D0616C41F0020113
:101240006164810705D5D90703D0616C41F00401C1
:101250006164010707D502F02001314303D0616CBE
:1012600041F008016164616C00293AD0800604D520
:10127000900602D5204601F065F820684069616C4F
:10128000C0F38010090700D460B3204601F033F8A2
:1012900020684069400621D52068143050E8001FBE
:1012A00021F0400140E80012002AF5D1E06BA8B11E
:1012B0006D494163E06BFFF733F9002811D0E06B13
:1012C000416B01B0BDE8F040084783060FD5930697
:1012D0000DD52046BDE8F84001F034B82046FFF7B0
:1012E0008DFFF8BD2046FFF789FF6564F8BD266BCA
:1012F0002023012E7CD1C6067AD5D60678D508687B
:101300004868009048694FF00206400640D5E16BFE
:10131000086840680004000CE8D0A28D8242E5D93C
:10132000E085886920282DD020680C3050E8001F07
:1013300021F4807140E80012002AF5D120681430B1
:1013400050E8001F21F0010140E80012002AF5D109
:101350002068143050E8001F21F0400140E80012DE
:10136000002AF5D184F84230256320680C3050E81B
:10137000001F21F0100140E80012002AF5D1E06BB7
:10138000FFF7ABF86663A08DE18D401A81B22AE0C9
:10139000A08DE18D401A81B2E08D0028A6D00029F1
:1013A000A4D022680C3252E8000F20F4907042E87A
:1013B0000007002FF5D12068143050E8002F22F0EC
:1013C000010240E80027002FF5D184F84230256360
:1013D00020680C3050E8002F22F0100240E8002373
:1013E000002BF5D166632046FFF707FFF8BDFFE746
:1013F00005062BD5150629D594F841002128F5D1ED
:10140000A068B0F5805F01D12069B0B1206A411CAD
:101410002162216800784860E08C401E0004000CC6
:10142000E084E3D12068C16821F08001C1602068B8
:10143000C16841F04001C160D8E7206A0088C0F36C
:1014400008004860206A801C2062E5E74006CDD590
:101450005006CBD5CA68204622F04002CA6084F804
:10146000413000F03BFAC1E7E722000870B5040004
:1014700004D094F84100002510B106E0012070BDB1
:1014800084F84050204600F023F8242084F84100DE
:101490002068C16821F40051C160204600F0B4FF0B
:1014A0002068016921F4904101612068416921F0BF
:1014B0002A0141612068C16841F40051C16065643E
:1014C000202084F8410084F842006563002070BD4C
:1014D000F0B585B00024009401940294039403684D
:1014E000424F022042490322424D4602BB4225D1CF
:1014F0008B6943F480438B618B6903F480430493CD
:101500008B6943F004038B618969039201F0040144
:1015100004910102CDE9001069462846FFF75EF804
:10152000CDE90064694628460294FFF757F8012286
:1015300000212520FFF7BCF9252028E02E4FBB42D3
:1015400029D1CB6943F40033CB61CB6903F4003379
:1015500004938B6943F004038B618969039201F062
:10156000040104910421CDE9001069462846FFF7E3
:1015700035F80820CDE90004694628460294FFF7B3
:101580002DF8032200212620FFF792F92620FFF7ED
:1015900081F905B0F0BD194DAB42FAD1CB6943F4E6
:1015A0008023CB61CB6903F4802304938B6943F0E0
:1015B00008038B618969124D01F00801CDE903210F
:1015C000CDE9006069462846FFF708F8E814CDE940
:1015D0000004694628460294FFF700F80222002121
:1015E0002720FFF765F92720D1E7000000380140E8
:1015F0000010024000080140004400400048004044
:10160000000C014090F84230202B01D0022070479E
:1016100021B11AB10023036300F052BF01207047CB
:101620002DE9F05F07460168744801260025744CD7
:101630004FF002094FF0030A4FF0040B814262D1D0
:10164000214694F801C0087809790346401CC2B2CB
:101650006C48BCF1000F15D0BCF1010F18D0BCF1E3
:10166000020F1CD0BCF1030F1ED0BCF1040F20D020
:10167000BCF1050F23D0BCF1060F26D0BCF1070F3B
:1016800053D03AE0EE2938D1C1542270667034E06C
:10169000022930D1C154227084F801902DE0C15448
:1016A000227084F801A028E0C154227084F801B0AF
:1016B00023E003291FD1C1542270052019E0C15431
:1016C0002270082A19D1062013E0C15480462270E6
:1016D0000A2A12D108214B48FEF790FD98F80820FD
:1016E000B2EB102F07D198F80910C0B2814202D195
:1016F0000720607001E06570257041490122091DD5
:101700004148FFF77FFF41493868884274D13C4F18
:10171000E1783F487F1DF1B1012925D002292DD064
:10172000032939D0042945D05FE0EF29E3D1C15422
:10173000384922700E70384A81781170374AC17862
:101740001170374A41791170364A817911703649E2
:10175000C0790870CFE70178012946D1A0783954C3
:10176000401CA070E67040E0017806293BD1A078CB
:101770003954401CA07084F8039036E00178A078BA
:101780003954401CC0B2A07004282ED12749F878E3
:10179000087084F803A028E00178A0783954401C30
:1017A000C0B2A070062820D121497879087084F849
:1017B00003B01AE00178A0783954401CC0B2A07080
:1017C000082812D10E480621401DFEF7D1FCBA7937
:1017D000C3B218499A4205D1FA79B2EB102F01D160
:1017E0000E7000E00D70E570A570BDE8F05F01229D
:1017F00007491148FFF706BFBDE8F09F00480040C9
:1018000020000020640100201C010020003801405D
:1018100030000020160000201800002017000020D3
:10182000190000201A0000201B0000202E000020BC
:101830002F0000202D0000208C0000202DE9F8430F
:10184000044690F84100984616460D46202802D0DE
:101850000220BDE8F88385B17EB1002060642120BC
:1018600084F84100FEF7B4FFA6848146E684A068B0
:101870002027B0F5805F02D003E00120E9E720696E
:1018800010B12E4600250EE000260CE080212046F7
:1018900000F031FEA8B9C6B116F8010B2168486006
:1018A000E08C401EE084E08C4B464FF00002CDF807
:1018B00000800028EAD14FF04001204600F01BFED6
:1018C00040B184F841700320C3E735F8020BC0F340
:1018D0000800E3E784F841700020BAE77047FEE7AC
:1018E0007CB5D4480178002501290AD0D24C204685
:1018F00061780078002976D0012975D0022974D149
:101900008EE10570CD480178CD484FF0FF33352981
:101910006CD01FDC19294BD01A297DD01B2946D148
:101920000178012977D00078002840D1C5A008228D
:10193000D0E90010CDE900106946C448FFF77EFFEA
:101940006420FEF739FE00210320FEF7D1FC0621BA
:1019500005202AE0362979D0372978D0382926D1B0
:101960000178012974D00078002820D1B8A108227C
:10197000D1E90001CDE900016946B448FFF75EFFF7
:10198000012000F0EFFB0721042000F087FA072177
:10199000052000F083FA0721062000F07FFA0721D6
:1019A000084600F07BFA0721082000F077FA7CBD9A
:1019B000017801291CD000780028F8D1A6A10822BE
:1019C000D1E90001CDE900016946A048FFF736FFE3
:1019D0006420FEF7F1FD00210120FEF789FC0020C4
:1019E00000F0CCFB7CBDFFE004E113E157E013E025
:1019F0009BA00822D0E90010CDE900106946934869
:101A0000FFF71CFF6420FEF7D7FD01210846FEF713
:101A10006FFC0120E4E72FE00178012919D000785C
:101A20000028DFD190A00822D0E90010CDE90010F5
:101A300069468648FFF702FF6420FEF7BDFD0021DE
:101A40000220FEF755FC06210420AEE754E080E0BA
:101A5000ABE087A10822D1E90001CDE90001694688
:101A60007A48FFF7EBFE6420FEF7A6FD0121022075
:101A7000FEF73EFC0521E7E77FA00822D0E9001031
:101A8000CDE9001069467148FFF7D8FE6420FEF7E3
:101A900093FD01210320FEF72BFC052158E7017877
:101AA000012916D0007800289CD175A10822D1E91F
:101AB0000001CDE9000169466448FFF7BFFE6420DC
:101AC000FEF77AFD00210420FEF712FC0621062015
:101AD0006BE76DA10822D1E90001CDE9000169465B
:101AE0005A48FFF7ABFE6420FEF766FD0121042093
:101AF000FEF7FEFB0521EAE70178012916D0007800
:101B000000288ED162A10822D1E90001CDE90001AF
:101B100069464E48FFF792FE6420FEF74DFD002116
:101B20000520FEF7E5FB062107203EE75AA1082223
:101B3000D1E90001CDE9000169464448FFF77EFE86
:101B40006420FEF739FD01210520FEF7D1FB0521B8
:101B5000EAE70178012915D000780028A4D150A126
:101B60000822D1E90001CDE9000169463748FFF7B5
:101B700065FE6420FEF720FD00210620FEF7B8FB7D
:101B8000062111E748A00822D0E90010CDE9001095
:101B900069462E48FFF752FE6420FEF70DFD012135
:101BA0000620FEF7A5FB0521FEE641A10822D1E9AA
:101BB0000001CDE9000169462448FFF73FFE0020FF
:101BC00000F0D0FA0821042000F068F9082105206F
:101BD00000F064F90821062000F060F908210720D0
:101BE00000F05CF90821DFE6032100F057F901203D
:101BF0006070F7E6A178012902D1217981420BD0EA
:101C0000012809D000F0E8FC0028F2D0207800F08C
:101C1000DDFC20706570E5E602206070A570E1E6ED
:101C2000E0790090A3796279E178207900F06EF98B
:101C3000ECE700002D000020140000202E00002002
:101C40002F0000200106001B0000F9CD8C000020B1
:101C50000106003800000897010600190000580D21
:101C600001060019000199CD0106001A0000A80D17
:101C70000106001A000169CD0106001B0001380DA4
:101C800001060035000099C4010600350001580422
:101C900001060036000069C4010600360001A804F0
:101CA0000106003700003804010600370001F9C4BE
:101CB000010600380001C9C72DE9F04385B00024B2
:101CC0002E480094019402940394816941F010011C
:101CD0008161816901F010010491816941F0040181
:101CE0008161816901F004010491816941F0080179
:101CF00081618069DFF8888000F00800049000228C
:101D00004FF4C0414046FEF75EFDDFF878900022B8
:101D100002214846FEF757FD4FF4005001250226E8
:101D2000CDE90005CDE9024669464046FEF756FC7E
:101D3000A8030327CDE90005CDE9024769464046DF
:101D4000FEF74CFC03970096CDE9015469464846DE
:101D5000FEF744FC4FF418408DE8310069460A480C
:101D6000FEF73CFC4FF47E708DE831006946484632
:101D7000FEF734FC05B0BDE8F0830000001002401F
:101D800000100140000C01400008014010B586B071
:101D90000024174800940194029403940494134976
:101DA0000594016040F27F21C0E9011440F2E7315F
:101DB000C0E903148461FFF763F808B1FEF78BFBF9
:101DC0004FF48050009069460948FFF7E9F808B1E0
:101DD000FEF781FB049404A905480594FFF71CF85D
:101DE000002801D0FEF777FB06B010BD00040040CC
:101DF000440000200C4810B50A4901604FF4E1315D
:101E00004160002181600C22C160C0E9041281613F
:101E1000C161FFF72BFB002803D0BDE81040FEF79F
:101E20005ABB10BD003801408C0000200C4810B592
:101E30000A4901604FF416514160002181600C2273
:101E4000C160C0E904128161C161FFF70FFB002886
:101E500003D0BDE81040FEF73EBB10BD004400407B
:101E6000D40000200C4810B50A4901604FF4E1315C
:101E70004160002181600C22C160C0E904128161CF
:101E8000C161FFF7F3FA002803D0BDE81040FEF768
:101E900022BB10BD004800401C0100207CB50C4650
:101EA000054600F057F90120FEF786FBEE208DF87D
:101EB000000002208DF8010003208DF802508DF8FB
:101EC00004008DF8034005216846FEF797F9010AE2
:101ED0008DF805108DF80600EF208DF807004FF003
:101EE000FF33082269460548FFF7A8FCFEF770FC9F
:101EF0000349886000F026F97CBD00001C01002029
:101F000014000020FEE7FEE7704700002DE9F047CF
:101F1000DFF804920746089C99F80000012811D0C8
:101F2000A50005EB430505EB020C44EA030500267A
:101F30001543BF1E072F21D2DFE807F00C6E99A8CA
:101F4000B7C6D500FEF776F908B1012100E00021FF
:101F50000120D4E0032911D10CF0FF0101246F4DC1
:101F60006F4F08290AD2DFE801F0040B1C221F3250
:101F70004247494600F02AFB08704E70BDE8F087E2
:101F800001210846FEF7B4F96420FEF715FB012095
:101F900000F0F4F82E603C70BDE8F0476148FEF7B1
:101FA000BBBF042108464CE00421052049E0012183
:101FB0000846FEF79DF96420FEF7FEFA012000F0C6
:101FC000DDF82E603C705748FEF7A6FFE9E70121D7
:101FD0000846FEF78DF96420FEF7EEFA012000F0C6
:101FE000CDF82E603C704F48FEF796FFDCE70421E9
:101FF0000846FFF753FFD7E701210846FEF778F9B7
:102000006420FEF7D9FA012000F0B8F82E603C7089
:102010004448FEF781FFEAE70329AFD10CF0FF0146
:102020000829ABD2DFE801F0040508110B16191ED0
:102030009FE70421062004E00421072001E0042199
:102040000820BDE8F047FFF729BF04210620FFF76D
:1020500025FFF1E70421062001E004210720FFF716
:102060001DFFECE704210620FFF718FFF5E7032921
:1020700084D1012C03D1012B01D1012A04D0002DE0
:10208000CBD1012102203AE00021FBE70329C4D192
:10209000012C03D1012B01D1012A04D0002DBCD188
:1020A000012103202BE00021FBE70329B5D1012CFE
:1020B00003D1012B01D1012A04D0002DADD1012182
:1020C00004201CE00021FBE70329A6D1012C03D149
:1020D000012B01D1012A04D0002D9ED10121052020
:1020E0000DE00021FBE7032997D1012C0ED0102C25
:1020F00093D1002B91D1002A8FD101210620FEF728
:10210000F7F8BDE8F0476420FEF756BA012B84D1FA
:10211000012AADD10021F1E71400002010000020B9
:102120000C0000204400002010B500F00BF8BDE8C2
:102130001040012201490248FFF764BA2400002040
:102140001C010020002202210148FEF73CBB0000D8
:10215000000C0140012202210148FEF734BB0000BF
:10216000000C014008B1012200E000224FF40051B0
:102170000148FEF728BB00000010014008B1012211
:1021800000E000224FF480410148FEF71CBB000034
:10219000001001407047FEF721BB30B58FB02821F9
:1021A0006846FDF7C6FF14210AA8FDF7C2FF022505
:1021B0000120049000951020059000244FF4601039
:1021C000CDE9084007956846FEF780FC08B172B675
:1021D000FEE70F20CDE90A054FF48060CDE90C4001
:1021E00002210AA80E94FEF795FB002801D072B6D2
:1021F000FEE70FB030BD70470148FEF740BF00005A
:1022000044000020F0B50268194B1A4C1A4D4FF0EB
:102210008047984205D0B84203D0A04201D0A842DE
:1022200003D122F070064A683243984205D0B84282
:1022300003D0A04201D0A84203D122F44074CA685E
:1022400022434C6922F08002224302608A68C26203
:102250000A688262984201D10969016301214161E2
:102260000169C90703D0016921F001010161F0BDD5
:10227000002C0140000400400008004010B58468B4
:1022800042EA032224F47F440A432243826010BDC1
:10229000826822F070020A4342F0070181607047B1
:1022A00010B5036A046A24F001040462846924F00E
:1022B000F00444EA021423F00A020A438461026231
:1022C00010BD10B5036A046A24F010040462846926
:1022D00023F0A00324F4704444EA023243EA0111DB
:1022E0008261016210BD10B5406A0021C185C184C0
:1022F000FEF784FF10BD01680C3151E8002F22F475
:10230000907241E80023002BF5D10168143151E8A7
:10231000002F22F0010241E80023002BF5D1016BD0
:10232000012909D101680C3151E8002F22F0100277
:1023300041E80023002BF5D1202180F84210002134
:102340000163704708B590F84210222901D002209D
:1023500008BD82684FF480539A4201D1016921B1CE
:10236000816A9A421BD04AB10AE00268816A5268C7
:10237000C2F308020A80816A891C08E0026972B10E
:102380000268526802F07F020A70816A491C816209
:10239000C18D491E0904090CC18503D01BE00268E8
:1023A0005268F1E70168CA6822F02002CA60016839
:1023B000CA6822F48072CA6001684A6922F0010288
:1023C0004A61202180F8421000214163026B012AFA
:1023D00003D0FFF725F9002008BD016301680C3127
:1023E00051E8002F22F0100241E80023002BF5D124
:1023F00001680A68D20602D50A6849680091818D91
:10240000FEF7FBFEE7E7000070B5044600680169CF
:10241000E26821F44051114301612169A068084339
:10242000616908432168CA6841F20C639A43024318
:10243000CA6020684169A26921F440711143416179
:102440001E492068884202D1FEF70AFB01E0FEF730
:10245000F7FA00EBC00101EB001260686421800014
:10246000B2FBF0F3B3FBF1F36FF018067343B2FB6A
:10247000F0F5B2FBF0F605EB8305322303EB05150F
:10248000B5FBF1F5B6FBF1F605F0F00505EB061529
:10249000B2FBF0F6B2FBF0F0B0FBF1F06FF0180217
:1024A000504306EB800003EB0010B0FBF1F0216815
:1024B00000F00F002844886070BD00000038014023
:1024C00081628285C28500214164222180F8421008
:1024D000016921B10168CA6842F48072CA6001686A
:1024E0004A6942F001024A610068C16841F0200176
:1024F000C160002070472DE9F843984617460D4605
:102500000446089E24E0701C22D0FEF761F9A0EB7F
:102510000800B0421AD8CEB12068C168490717D563
:10252000802D15D0402D13D00168C94309070FD461
:1025300001680025406800902046FFF7DCFE082077
:10254000606484F840500120BDE8F8830320FBE775
:102550002068006835EA000004D00020B842D2D0DC
:102560000020F1E70120F9E70148FEF749BE00002D
:102570008C0000200148FEF743BE0000D40000207C
:102580000148FEF73DBE00001C010020FEE70907E0
:10259000090E002804DB00F1E02080F800147047E9
:1025A00000F00F0000F1E02080F8141D704702E0F9
:1025B00008C8121F08C1002AFAD1704770470020CE
:1025C00001E001C1121F002AFBD17047032801D08E
:1025D000022070470120704710B5FEF7F9F8054951
:1025E0008968401AB0F5FA6F01D9012010BD0020AA
:1025F00010BD000014000020FEF7F8F8FFF7CDFD35
:10260000FFF75AFBFFF7F6FBFFF710FCFFF72AFC7A
:10261000FFF7BCFBFFF788FD012204490448FEF7E1
:10262000F1FF00BFFFF75CF9FCE70000300000207D
:102630008C000020010202030405060708090A0BAA
:102640000C0D0E0F10100000000000000000010231
:10265000030406070809000000000102030400004B
:10266000802600080000002044000000AE2500087D
:10267000C42600084400002034050000BE250008E0
:102680000101010101010101010100000000000040
:102690000000000002000000000000000000000038
:1026A000000000000000000000000000000000002A
:1026B0000000000001000000100000000000000009
:0426C00000127A008A
:04000005080000ED02
:00000001FF
