:020000040800F2
:10000000080700208901000877110008A1100008E6
:1000100075110008D30200086116000800000000F6
:10002000000000000000000000000000D1110008E6
:100030000D0300080000000079110008E513000816
:10004000A3010008A3010008A3010008A301000800
:10005000A3010008A3010008A3010008A3010008F0
:10006000A3010008A3010008A3010008A3010008E0
:10007000A3010008A3010008A3010008A3010008D0
:10008000A3010008A3010008A3010008A3010008C0
:10009000A3010008A3010008A3010008A3010008B0
:1000A000A3010008A3010008A3010008A3010008A0
:1000B000A3010008A3010008A3010008A301000890
:1000C000A3010008A3010008A3010008A301000880
:1000D000A3010008A3010008A301000855160008A9
:1000E000A3010008A3010008A301000800F002F822
:1000F00000F03AF80AA090E8000C82448344AAF188
:100100000107DA4501D100F02FF8AFF2090EBAE885
:100110000F0013F0010F18BFFB1A43F0010318473B
:10012000A4150000C4150000103A24BF78C878C197
:10013000FAD8520724BF30C830C144BF04680C60ED
:10014000704700000023002400250026103A28BF35
:1001500078C1FBD8520728BF30C148BF0B60704739
:100160001FB51FBD10B510BD00F07AF81146FFF79E
:10017000F7FF01F086FA00F098F803B4FFF7F2FFFA
:1001800003BC00F09FF80000094880470948004779
:10019000FEE7FEE7FEE7FEE7FEE7FEE7FEE7FEE737
:1001A000FEE7FEE704480549054A064B7047000094
:1001B00041140008ED000008080100200807002095
:1001C00008030020080300204FF000020429C0F0BB
:1001D000128010F0030C00F01B80CCF1040CBCF179
:1001E000020F18BF00F8012BA8BF20F8022BA1EBCB
:1001F0000C0100F00DB85FEAC17C24BF00F8012BB0
:1002000000F8012B48BF00F8012B70474FF00002A7
:1002100000B5134694469646203922BFA0E80C50FC
:10022000A0E80C50B1F12001BFF4F7AF090728BFD7
:10023000A0E80C5048BF0CC05DF804EB890028BF53
:1002400040F8042B08BF704748BF20F8022B11F07C
:10025000804F18BF00F8012B7047704770477047F8
:10026000754600F02BF8AE4605006946534620F06F
:100270000700854618B020B5FFF794FFBDE8204081
:100280004FF000064FF000074FF000084FF0000B52
:1002900021F00701AC46ACE8C009ACE8C009ACE805
:1002A000C009ACE8C0098D46704710B50446AFF3ED
:1002B00000802046BDE81040FFF75FBF0048704750
:1002C000A400002001491820ABBEFEE72600020072
:1002D0007047FEE7F0B505464FF6FF70002241F289
:1002E000210406460FE0AB5C80EA032000230704EC
:1002F00003D584EA400080B201E006EA40005B1CBE
:10030000082BF4D3521C8A42EDD3F0BD7047FEE7B0
:1003100010B590F821100022022905D00421816334
:1003200080F82020012010BD01680B6823F00E0327
:100330000B6001680B6823F001030B6090F84030FC
:10034000C46B012101FA03F3636080F8211080F887
:100350002020104610BD000010B590F82110002498
:10036000022903D00421816301243DE001680A6869
:1003700022F00E020A6001680A6822F001020A6097
:100380001A4A0168914201D1012121E0174A143231
:10039000914201D110211BE0144A2832914201D12F
:1003A000891515E0114A3C32914201D189140FE0C0
:1003B0000E4A5032914202D14FF4803108E00B4A8C
:1003C0006432914202D14FF4801101E04FF080710C
:1003D000064A083A5160012180F82110002180F876
:1003E0002010416B01B18847204610BD0800024033
:1003F0002DE9F84FDFF8B8910024A9F1040B23464A
:100400000F2709F1040AABF1040EC9E00125A5404C
:100410002A40AA427DD1674ED1F804C0ACEB060851
:10042000B44532D014DCBCF1030F3AD009DCBCF186
:10043000000F2AD0BCF1010F1CD0BCF1020F31D14A
:100440001DE0BCF1110F17D0BCF1120F2AD119E039
:10045000B8F5881F19D006DCB8F5803F15D0B8F57F
:10046000801F1FD111E0B8F5001F0ED0B8F5041F92
:1004700018D10AE0CB6815E0CB681B1D12E0CB68F1
:1004800008330FE0CB680C330CE08B682BB1012BE9
:100490004FF0080303D0456104E0042302E0056146
:1004A00000E00023FF2A01D8064601E000F104061F
:1004B0004FEA840501D9A5F12005D6F8008007FA96
:1004C00005FC28EA0C0803FA05F548EA0508C6F811
:1004D00000804D68ED0062D5374DAE6946F00106EB
:1004E000AE61AD6924F0030605F001050095334DBA
:1004F00006EB050CDCF80850A607360F07FA06F8DD
:1005000025EA0805DFF8B880404503D14FF0000820
:1005100017E044E0DFF8AC80404502D14FF001081D
:100520000FE0DFF8A480404502D14FF0020808E058
:10053000DFF89880404502D14FF0030801E04FF00A
:10054000040808FA06F848EA0508CCF808804D685F
:10055000D9F80060ED024D4601D5164300E0964300
:100560002E604D68DAF80060AD02554601D516439D
:1005700000E096432E604D68DBF80060AD035D46F9
:1005800001D5164300E096432E604D68DEF800600A
:10059000ED03754601D5164300E096432E60641CBA
:1005A0000D682A46E5407FF431AFBDE8F88F0000C2
:1005B000080401400000111000100240000001403A
:1005C00000080140000C01400010014000140140EF
:1005D0008068084000D0012070470AB1016170476F
:1005E0000904FBE701488068704700000000002014
:1005F0000248816802781144816070470000002041
:10060000074810B5016841F010010160032000F0B7
:1006100079F8002000F006F800F024F8002010BD62
:100620000020024070B50D4D04464FF47A712878D1
:10063000B1FBF0F00A490968B1FBF0F000F0E0FA14
:1006400048B9102C07D200222146501E00F03AF87B
:1006500000206C6070BD012070BD00000000002013
:100660000C0000200E4808B5816941F0010181614C
:10067000816901F001010091C16941F08051C161BE
:10068000C06900F080500090052000F03BF805485C
:10069000416821F0E06141F00071416008BD000057
:1006A0000010024000000140002809DB00F01F029A
:1006B000012191404009800000F1E020C0F80011C4
:1006C00070470000F0B40E4B1B680C46C3F30223C6
:1006D000C3F10705042D00D90425191D072901D2EE
:1006E000002300E0DB1E012606FA05F1491E214029
:1006F00099409E40761E16403143F0BC00F0B1BFD9
:100700000CED00E0064900F0070208684FF6FF0311
:10071000184040EA0220034A104308607047000076
:100720000CED00E00000FA052DE9F0470F4605004A
:1007300061D0434E306800F00700B84209D23068FB
:1007400020F0070038433060306800F00700B842FE
:1007500051D128683B4C810712D5400703D560680A
:1007600040F4E06060602878000703D5606840F4DA
:10077000605060606068A96820F0F0000843606025
:100780002878C00728D06868012810D0216802287E
:1007900010D0890700292EDA616821F00301014396
:1007A0006160FFF71FFF804641F288390DE0216844
:1007B0008903EFE78901EDE7FFF714FFA0EB0801DC
:1007C000494502D90320BDE8F0876068696800F0F8
:1007D0000C00B0EB810FEFD1306800F00700B84299
:1007E0000BD9306820F0070038433060306800F0E3
:1007F0000700B84201D00120E5E72878400705D579
:100800006068E96820F4E0600843606028780007C9
:1008100006D56068296920F4605040EAC100606034
:1008200000F038F86168084AC1F30311515CC84010
:100830000649086006480068FFF7F4FE0020C2E79A
:100840000020024000100240AA1600080C00002000
:10085000040000200448054900684968044AC1F3BF
:100860000221515CC84070470C000020001002407B
:10087000BA1600080448054900684968044AC1F3EB
:10088000C221515CC84070470C000020001002409B
:10089000BA1600080E4A51680E4801F00C03042BEA
:1008A00011D0082B0FD10C48C1F38343C903C05C9E
:1008B0000AD55168084AC1F34041921E515C054A6D
:1008C0005043B0FBF1F070470449484370470000C3
:1008D0000010024000127A009A16000800093D003C
:1008E0002DE9F84F040070D02078C04DC00749D0E2
:1008F0006868C0F38100012807D06868C0F38100F0
:10090000022809D16868C00306D52868800339D554
:1009100060680028E7D035E06068B0F5803F0BD014
:1009200010B1B0F5A02F11D0286820F480302860D5
:10093000286820F4802002E0286840F48030286095
:10094000606890B1FFF74EFE06460AE0286840F462
:1009500080202860F0E700BFFFF744FE801B64287A
:1009600073D828688003F7D50CE0FFF73BFE0646F6
:1009700005E000BFFFF736FE801B6428F0D828682A
:100980008003F7D420789A4E80074FF001094FF08A
:10099000000839D5686810F00C0F07D06868C0F3FC
:1009A0008100022809D16868C00306D4286880073E
:1009B00014D52069012808D110E02069B0B1C6F82B
:1009C0000090FFF70FFE074605E00AE1FFF70AFE79
:1009D000C01B0228C4D828688007F7D52868616939
:1009E00020F0F80040EAC10028600DE0C6F8008061
:1009F000FFF7F8FD074604E0FFF7F4FDC01B0228EF
:100A000023D828688007F7D4207800072CD57948A8
:100A1000A169D9B1C0F80090FFF7E4FD074604E0F2
:100A2000FFF7E0FDC01B02280FD8686A8007F7D5E2
:100A300071484FF4FA510068B0FBF1F0009000BF2C
:100A40000098411E0091FAD20EE080E0C0F80080CC
:100A5000FFF7C8FD074604E0FFF7C4FDC01B0228EE
:100A600075D8686A8007F7D42078400760D5E869B0
:100A70000027C00008D4E86940F08050E861E869C8
:100A8000012700F0805000905C480168C90513D42C
:100A90000168834641F480710160FFF7A3FD82463F
:100AA00006E000BFFFF79EFDA0EB0A0064284ED8C9
:100AB000DBF80000C005F5D5E06801280AD008B1D0
:100AC000052813D0286A20F001002862286A20F047
:100AD000040002E0286A40F001002862E06841F268
:100AE000883B98B1FFF77EFD82460BE0286A40F014
:100AF00004002862EEE700BFFFF774FDA0EB0A01D7
:100B000059455AD8286A8007F6D50CE0FFF76AFDE8
:100B1000824605E0FFF766FDA0EB0A0159454CD877
:100B2000286A8007F6D41FB1E86920F08050E86198
:100B3000E06988B36968C1F38101022944D00228C1
:100B4000C6F8608004D0FFF74DFD044638E034E07D
:100B5000FFF748FD074604E0FFF744FDC01B0228ED
:100B60002BD828688001F7D4206AB0F5803F05D1E2
:100B70006868A16820F4003008436860D4E908017F
:100B80000843696821F4741108436860C6F86090EE
:100B9000FFF728FD044606E025E000BFFFF722FD31
:100BA000001B022809D828688001F7D51BE000BF88
:100BB000FFF718FD001B022802D90320BDE8F88FBB
:100BC00028688001F4D40EE00128F7D06868226A12
:100BD00000F48031914204D1616A00F470108842BF
:100BE00001D00120EAE70020E8E700000010024001
:100BF00000004242800442420C000020007000408D
:100C000010B5401EB0F1807F01D3012010BD4FF020
:100C1000E02460610F21601700F023FD0020A06137
:100C200007202061002010BD70477047F8B50168AB
:100C300004460868CA684B6910F00F0F4FF00005B2
:100C400059D003F0010602F49077374365D0C1070D
:100C500005D0D10503D5616C41F001016164410704
:100C600005D5D90703D0616C41F0020161648107A9
:100C700005D5D90703D0616C41F004016164010717
:100C800007D502F02001314303D0616C41F0080127
:100C90006164616C00293AD0800604D5900602D5C3
:100CA000204600F0FDFB20684069616CC0F38010B5
:100CB000090700D460B3204600F0CBFB20684069F0
:100CC000400621D52068143050E8001F21F0400173
:100CD00040E80012002AF5D1E06BA8B16D494163EC
:100CE000E06BFFF739FB002811D0E06B416B01B0DE
:100CF000BDE8F040084783060FD593060DD5204682
:100D0000BDE8F84000F0CCBB2046FFF78EFFF8BDF1
:100D10002046FFF78AFF6564F8BD266B2023012E6D
:100D20007CD1C6067AD5D60678D508684868009082
:100D300048694FF00206400640D5E16B08684068FC
:100D40000004000CE8D0A28D8242E5D9E0858869D4
:100D500020282DD020680C3050E8001F21F480712D
:100D600040E80012002AF5D12068143050E8001F36
:100D700021F0010140E80012002AF5D1206814306A
:100D800050E8001F21F0400140E80012002AF5D190
:100D900084F84230256320680C3050E8001F21F0B1
:100DA000100140E80012002AF5D1E06BFFF7B0FA1D
:100DB0006663A08DE18D401A81B22AE0A08DE18D9D
:100DC000401A81B2E08D0028A6D00029A4D0226864
:100DD0000C3252E8000F20F4907042E80007002F18
:100DE000F5D12068143050E8002F22F0010240E8CD
:100DF0000027002FF5D184F84230256320680C309D
:100E000050E8002F22F0100240E80023002BF5D11B
:100E100066632046FFF708FFF8BDFFE705062BD500
:100E2000150629D594F841002128F5D1A068B0F520
:100E3000805F01D12069B0B1206A411C2162216824
:100E400000784860E08C401E0004000CE084E3D190
:100E50002068C16821F08001C1602068C16841F04C
:100E60004001C160D8E7206A0088C0F308004860EC
:100E7000206A801C2062E5E74006CDD55006CBD520
:100E8000CA68204622F04002CA6084F8413000F06F
:100E9000DFF8C1E74314000870B5040004D094F8EB
:100EA0004100002510B106E0012070BD84F84050DB
:100EB000204600F023F8242084F841002068C1680F
:100EC00021F40051C160204600F04CFB206801690C
:100ED00021F4904101612068416921F02A014161BA
:100EE0002068C16841F40051C1606564202084F825
:100EF000410084F842006563002070BD30B585B0C4
:100F000000240094019402940394006818498842D4
:100F10002CD11848C16941F48021C161C16901F433
:100F200080210491816941F0080181618069124D3D
:100F300000F0080004904FF48060009002200190BF
:100F40000320039069462846FFF752FAE814CDE9DA
:100F50000004694628460294FFF74AFA012200215C
:100F60002720FFF7AFFB2720FFF79EFB05B030BD22
:100F70000048004000100240000C014090F8423050
:100F8000202B01D00220704721B11AB10023036346
:100F900000F044BB01207047F8B51C4902688A4242
:100FA00032D1406C1A491B4C002668B11068506859
:100FB00000901068506800901068506800901068A9
:100FC00050680090E67219E0E07A401CC0B2E0720E
:100FD000202800D3E6720D46E17A681810F8010C5B
:100FE000EF2809D1082907D3094800F00BF9E17A65
:100FF0000748FFF7E9F8E672E07A2918BDE8F840FB
:1010000001220548FFF7BABFF8BD000000480040C4
:1010100084000020100000201C00002090F84130C7
:10102000202B01D00220704779B172B10162828415
:10103000C28400214164212180F841100068C16808
:1010400041F08001C160002070470120704700001E
:1010500008B500680D49884216D1002202210C48CB
:10106000FFF7BBFA002000900099491C009132293B
:10107000FADB084901220870C97A0748BDE8084030
:1010800001440648FFF77ABF08BD00000048004051
:10109000000C014010000020840000201C000020F3
:1010A000FEE7000070B586B000242048009401944B
:1010B00002940394816941F010018161816901F01A
:1010C00010010491816941F008018161816901F099
:1010D00008010491816941F0040181618069144E25
:1010E00000F004004FF4C045049000222946304629
:1010F000FFF773FA0220CDE9024000950125694609
:1011000001953046FFF774F94FF418408DE831002F
:1011100069460848FFF76CF94FF47E708DE831009E
:1011200069460548FFF764F906B070BD001002403B
:101130000010014000080140000C01400C4810B5AF
:101140000A4901604FF4E1314160002181600C22C5
:10115000C160C0E904128161C161FFF79DFE0028F2
:1011600003D0BDE81040FFF7D2B810BD00480040E2
:101170001C000020FEE7FEE770470000F8B50E4BAC
:101180000646144618780D46002813D10120187021
:10119000024602210948FFF720FA00200090401C77
:1011A00000906428FBDB224629463046BDE8F84023
:1011B000FFF734BFF8BD000010000020000C014014
:1011C000012291030148FFF708BA00000010014016
:1011D0007047000010B5002202210648FFF7FDF914
:1011E000064905480122C97ABDE810400144044877
:1011F000FFF7C4BE000C0140840000201000002056
:101200001C00002070B50446082923D32078EE285E
:1012100020D1607802281DD1601810F8012CEF2A27
:1012200018D130F8030CC91E45BA2046FFF752F812
:1012300085420FD1A078E17804280BD1032905D08D
:10124000042907D1BDE87040FFF7BABFBDE8704080
:1012500000F002B870BD0000FEB54A4F4FF40071B7
:101260003846FFF7B5F90025474C012600285DD028
:1012700066708DF8006000BF4FF480713846FFF74C
:10128000A7F9002856D0A6708DF801608021384655
:10129000FFF79EF9F0B3E6708DF802604021384602
:1012A000FFF796F9B8B326718DF803602021384610
:1012B000FFF78EF980B366718DF80460102138460F
:1012C000FFF786F948B3A6718DF805600821384606
:1012D000FFF77EF990B3E6718DF806602B4F4FF45F
:1012E00000413846FFF774F948B326728DF807605D
:1012F0004FF480513846FFF76BF988B366728DF86A
:10130000086000BF4FF400613846FFF761F940B351
:10131000A67203E014E017E01AE01DE08DF8096002
:101320000A226946032000F033F8FEBD65708DF88F
:101330000050A1E7A5708DF80150A7E712E015E075
:10134000E5708DF80250A9E725718DF80350ADE7DF
:1013500065718DF80450B1E7A5718DF80550B5E7BA
:1013600008E00BE0E5718DF80650B7E725728DF8BF
:101370000750BDE765728DF80850C3E7A5728DF878
:101380000950CDE7000C014010000020000801408A
:1013900070B5124C1546EE222270022262700422B1
:1013A000A270E0702571002003E00A5C2318401C45
:1013B0005A71A842F9DB691D0848FEF78BFF020A43
:1013C00061194A718871EF20C87105F10802BDE802
:1013D000704002490248FFF7D1BE000064000020BF
:1013E0001C000020FFF704B930B58FB028216846F3
:1013F000FEF70CFF14210AA8FEF708FF02250120C2
:10140000049000951020059000244FF46010CDE961
:10141000084007956846FFF763FA00B1FEE70F2022
:10142000CDE90A054FF48060CDE90C4002210AA8FD
:101430000E94FFF779F9002800D0FEE70FB030BD19
:10144000704710B5406A0021C185C184FFF7EDFBEC
:1014500010BD01680C3151E8002F22F4907241E870
:101460000023002BF5D10168143151E8002F22F040
:10147000010241E80023002BF5D1016B012909D1BC
:1014800001680C3151E8002F22F0100241E80023DE
:10149000002BF5D1202180F8421000210163704714
:1014A00008B590F84210222901D0022008BD8268B8
:1014B0004FF480539A4201D1016921B1816A9A4265
:1014C0001BD04AB10AE00268816A5268C2F308027E
:1014D0000A80816A891C08E0026972B10268526858
:1014E00002F07F020A70816A491C8162C18D491E27
:1014F0000904090CC18503D01BE002685268F1E7BA
:101500000168CA6822F02002CA600168CA6822F431
:101510008072CA6001684A6922F001024A61202192
:1015200080F8421000214163026B012A03D0FFF7CB
:1015300033FD002008BD016301680C3151E8002F24
:1015400022F0100241E80023002BF5D101680A685F
:10155000D20602D50A6849680091818DFFF764FBC5
:10156000E7E7000070B5044600680169E26821F40D
:101570004051114301612169A06808436169084332
:101580002168CA6841F20C639A430243CA6020682A
:101590004169A26921F44071114341611E492068EB
:1015A000884202D1FFF766F901E0FFF753F900EB3B
:1015B000C00101EB0012606864218000B2FBF0F30F
:1015C000B3FBF1F36FF018067343B2FBF0F5B2FB17
:1015D000F0F605EB8305322303EB0515B5FBF1F5BA
:1015E000B6FBF1F605F0F00505EB0615B2FBF0F6DB
:1015F000B2FBF0F0B0FBF1F06FF01802504306EBD5
:10160000800003EB0010B0FBF1F0216800F00F0048
:101610002844886070BD00000038014081628285E6
:10162000C28500214164222180F84210016921B164
:101630000168CA6842F48072CA6001684A6942F06F
:1016400001024A610068C16841F02001C1600020C8
:10165000704700000148FFF7E9BA00001C000020B5
:10166000FEE70907090E002804DB00F1E02080F8FE
:101670000014704700F00F0000F1E02080F8141D06
:101680007047FEF7BDFFFFF7AFFEFFF70BFDFFF75B
:1016900055FDFFF79FFDFEE7010202030405060763
:1016A00008090A0B0C0D0E0F1010000000000000BE
:1016B00000000102030406070809000000000102FF
:1016C00003040000E4160008000000201C000000D5
:1016D00028010008001700081C000020EC0600008C
:1016E000440100080100000010000000000000009C
:1016F00000127A0000010101010101010101010054
:04000005080000ED02
:00000001FF
